:020000040800F2
:10000000A0110020C101000897340008E130000869
:1000100095340008812E0008F13E00080000000021
:10002000000000000000000000000000A53B0008E8
:10003000832E0008000000003D350008253D000823
:10004000DB010008DB010008DB010008DB01000820
:10005000DB010008DB010008DB010008312F00088C
:10006000DB010008DB010008DB010008DB01000800
:10007000DB010008DB010008DB010008DB010008F0
:10008000DB010008DB010008DB010008DB010008E0
:10009000DB010008DB010008DB010008DB010008D0
:1000A000DB010008DB010008DB010008DB010008C0
:1000B000DB010008DB010008DB010008DB010008B0
:1000C000DB010008DB010008DB010008DB010008A0
:1000D000DB010008DB010008DB010008DB01000890
:1000E000DB010008DB010008DB010008DB01000880
:1000F000DB010008DB010008DB010008DB01000870
:10010000DB010008DB010008DB010008DB0100085F
:10011000DB010008DB010008DB010008DB0100084F
:10012000DB010008DB010008DB010008DB0100083F
:10013000DB010008DB010008DB010008DB0100082F
:10014000DB010008DB010008DB010008DB0100081F
:10015000DB010008DB010008DB010008DB0100080F
:10016000DB010008DB010008DB010008DB010008FF
:10017000DB010008DB010008DB010008DB010008EF
:10018000DB010008DB010008DB010008DB010008DF
:10019000DB010008DB010008DB010008DB010008CF
:1001A000DB010008DB010008DB010008DFF80CD0F0
:1001B00002F054FE00480047C97E0008A01100204C
:1001C0000648804706480047FEE7FEE7FEE7FEE7F1
:1001D000FEE7FEE7FEE7FEE7FEE7FEE7753D000807
:1001E000AD01000810B5FF49C4074FF040434FF080
:1001F000804205D08B66CB66C1E91C328A67CA672C
:10020000840709D5C1F80031C1F80431C1E942328F
:10021000C1F81021C1F81421400709D5C1F898315F
:10022000C1F89C31C1E96832C1F8A821C1F8AC21FC
:1002300010BD2DE9F14F002082B082468146029820
:10024000806F00287ED000220020401C0428FCDBA8
:10025000029800EBC203D3E90010A1FB0167D3E9C8
:10026000065400FB017701FB0077AB46AD1BCDE9DF
:1002700000670326A5FB06C8A64664EB070404FB3B
:100280000684002705FB0745DDE900671CEB060433
:100290007D41A4FB016705FB017504FB0055D3E913
:1002A0000C47341B65EB0705CDE900455D46A5FB12
:1002B00005670324A6FB04580EFB0B770BFB0E7798
:1002C00007FB04844FF0000C06FB0C44D3E91263D7
:1002D000761B63EB04034C18A4FB017C40EB000588
:1002E00005FB01C504FB0055A7FB014C05FB01C53F
:1002F00007FB0055A4FB017C05FB01C504FB005472
:10030000F6196341DDE90045AD0045EA9475A400A6
:10031000A4FB017C05FB01C104FB0014F01B73EB83
:10032000040103D50023404263EB0101BAEB000452
:1003300079EB010301DA82468946521C032A83DBEA
:10034000504600E016E0494602F0D5FB00EE900A68
:10035000A54890ED0E1A80EE810A10EE100A02F008
:10036000F1FBA04AD2F80C2203B09200BDE8F04F96
:1003700002F0E8B9002003B00146BDE8F08F2DE996
:10038000F14F0020009A0146926FE2B30024002250
:10039000521C042AFCDB009A02EBC405AA46D5E9EC
:1003A0000029A2FB023CD5E906769E46FB1A0325EE
:1003B000A3FB057809FB02CC02FB09CB66EB0B061D
:1003C00006FB05854FF0000C03FB0C5617EB0E03E4
:1003D000A3FB027C46EB0B0606FB02C203FB0923D0
:1003E000DAE90C25BA1AAB4103D50025524265EB78
:1003F0000303851A71EB030501DA10461946641CE4
:10040000032CC4DB00E015E002F075FB00EE900A5F
:10041000754890ED0E1A80EE810A10EE100A02F077
:1004200091FB704AD2F80C22BDE8F84F02EB420271
:1004300002F088B900200146BDE8F88F2DE9FE439F
:10044000684D80460024D5F810626F4605EBC40164
:100450003246D1E9020102F066F905EB8401B1F8F8
:1004600084100904401847F8240004F10104032C07
:10047000ECDB5C489821083002F09DF90120FFF781
:10048000B1FE95F8E8010199042807D1D5F81802C2
:10049000B0F5201F02DD052085F8E801524C0098D8
:1004A000636AC11A01D40E4600E01E1A0198A26ABE
:1004B000801A01D4074601E0019FD71BBE4206DD2A
:1004C000002901D4084606E00098181A03E0002825
:1004D00001D50198101A029AE16A521A01D4134602
:1004E00001E0029BCB1A834205DB002A01D41046AF
:1004F00001E00298081AD8F8241006F0E3FFD5F8B6
:100500001812814206DD0321684607F0C1FB022074
:1005100007F014FC009860620198A0620298E06203
:10052000BDE8FE83304AC2E9020170472E4AC2E9A3
:10053000060170472C4AC2E904017047294AD2F8E3
:10054000E0310360D2E97402C1E900027047254A34
:10055000D2F8E0310360D2E97602C1E900027047C7
:100560002DE9FE4781460020EA468A6F22B901EB59
:10057000800339F91020DA6701EB800239F9103075
:10058000D46F1D1B4AF82050136E9D4200DD156686
:10059000D36E9D4200DAD5660123002422464FEA3D
:1005A000E578A3FB056704FB057403FB08443346A9
:1005B00002EB420601EBC60606EBC00CDCE9007656
:1005C000FF186641CCE90076521C042AE9DB401C86
:1005D0000328CADB886F401C88670120C1F890009F
:1005E000BDE8FE87E00600204009002030B500236A
:1005F00002EB830550F823405B1CEC66032BF7DB12
:10060000C2F88810916F79B1002102EB810450F893
:100610002130E56F5B1B00D55B42256E9D4200DA01
:100620002366491C0329F0DB906F401C9067012072
:10063000C2F8900030BD10B500210B4600EB8102DE
:10064000491CD46ED46713660329F7DBD0F88810F1
:1006500040F8783FC0E9051310BDD0E92210081A10
:1006600070470146D1E91802824200DB1046896ECC
:10067000814200DB084670472DE9F0478046501E56
:10068000012686408946C2F12007404602F05AF80A
:1006900004460D46404649463A4602F044F83A467A
:1006A00002F050F8B04203DD641C45F1000505E09E
:1006B0007142884202DA641E45F1FF352046294620
:1006C000BDE8F087F7490020086248628862C86286
:1006D000086448648864C864086348638863C863BE
:1006E000086548658865C865704730B5EE4AD2F838
:1006F000483223B1D2E990542D1A8C4101DAC2E973
:1007000090015B1CC2F8483230BD30B5E64AD2F8E1
:10071000583223B1D2E994542D1A8C4101DAC2E93E
:1007200094015B1CC2F8583230BD30B5DE4AD2F8B5
:1007300028322BB1D2E98845041B71EB050401DA9C
:10074000C2E988015B1CC2F8283230BD30B5D64AF8
:10075000D2F838322BB1D2E98C45041B71EB050479
:1007600001DAC2E98C015B1CC2F8383230BD2DE9D8
:10077000F0470246CC48012508308046C36E016E22
:10078000046FC91A436E1B1B8B4200DB1946836E34
:10079000D8F87400181A884200DB0146C14F603750
:1007A000F86B884204DA002400F010FA204687E74C
:1007B000108E0124BC4EC0054FF000010ED5D6F8B6
:1007C00080303068834209DBB2F87420D20506D548
:1007D000D6F8B021824201DB052400E00C4674B358
:1007E000600719D5AF48C8388146FFF722FD000DD4
:1007F00040EA01300915C6E97601D7E904321B1A2F
:100800008A4102DA0025FFF7A1FF9821484601F04E
:10081000D2FF0420FFF7E6FCE0070ED04046FFF7CA
:1008200008FDC6E97C01D7E906340246181A8C4156
:1008300003DA00251046FFF778FF284640E7FFE778
:1008400002203DE71EB5044690F83000C0F3811049
:10085000032804D19449201D0831FFF781FE94F844
:100860007400C0F38110032805D18E4904F14800BB
:10087000C839FFF775FED4F8B8008B4AC0F381136E
:10088000A0326946032B0FD0C0F3411003281AD1C0
:10089000002004EB8003D3F8A0309B1341F82030F4
:1008A000401C0328F5DB09E0002004EB4003B3F90A
:1008B0008C3041F82030401C0328F6DB6846D4F821
:1008C000C010FFF793FE1EBD2DE9F047054600203E
:1008D000296BCA056AD501F05001402900D10120D9
:1008E00095F8741001F05001402900D1012095F8CD
:1008F000B8106D4C01F05001402900D030B100F02B
:1009000065F90020C4F8E00184F8E801654ED4F8E8
:100910000812E86A6036814228D0C4F808020A2822
:10092000306B0CDA40002060716B00EE100A491C3D
:10093000C4F80C12B8EEC00A03F0A0FE05E0206077
:10094000706BC4F80C0296ED0E0A84ED850AD4F89B
:100950000C02C0F11000C4F810024FF48040C4F83B
:10096000180296F8341019208840F0632846FFF7E3
:1009700069FF94F8E811DFF8309105274FF002087D
:1009800009F1A009072911D2DFE801F0041127308D
:100990005E7E8500D4F8E001411CC4F8E0110A280D
:1009A00004DB00F013F9012084F8E80186E0D4F8B4
:1009B0009800012810D12846FFF7D9FE10B1012870
:1009C00003D004E084F8E87101E084F8E881484647
:1009D000FFF731FEFFF776FE70E0032084F8E801B0
:1009E0002846FFF72BFD00F0F1F867E02846FFF7F7
:1009F000BEFEE8B3012861D1B5F8B8004FF004039A
:100A0000C00515D54846FFF72CFE0146C017C4E9BE
:100A10007410D6E902C2BCEB0101824102DA84F80B
:100A2000E87108E04846FFF718FE316A884202D3B1
:100A300084F8E83124E0F4E97601FFF766FED4E9B2
:100A40000601FFF752FE39E0B5F8B800C0050BD536
:100A50004846FFF706FE0146C017C4E97410D6E900
:100A60000232591A824108DB2846FFF780FE00E077
:100A700003E010B1012803D020E084F8E8711DE004
:100A80002846FFF7DBFCD6E7062084F8E8010120C2
:100A900007F054F90DE02846FFF769FE012805D05C
:100AA00038B10BE0E0080020E006002084F8E8817F
:100AB00004E000F08BF84846FFF7BDFD0020FFE59D
:100AC00010B500214010002802D001F10101F9DC2D
:100AD0004FF0010001F1010100FA01F0434C00EE7A
:100AE000100AC4E90C01B8EEC00A03F0C7FD84ED9A
:100AF0000E0A94F8341019208840E06310BD10B538
:100B00004FF418713A4801F056FE4021374801F081
:100B100052FE0720FFF766FB344840F2DC5100220A
:100B2000C0E906121421C0E902124FF41671C0E99F
:100B3000041230492E4C01620120C4F8E40119204E
:100B4000FFF7BEFF0020C4F8080210BD10B54FF437
:100B50001871274801F02FFE0720FFF743FB2448B8
:100B600001210022C0F8E41180F8E81103210120DE
:100B700007F0DAF807226421AFF2B320BDE8104095
:100B800006F0F0BE10B5012007F0D8F8AFF2C7208C
:100B9000BDE8104007F044B910B5FFF7B0FF0028DA
:100BA00005D1AFF25700BDE8104006F069BF10BD97
:100BB00010B5FFF7E7FFAFF26B00BDE8104007F09C
:100BC0005DB90B49D1E97C0170477047084810B501
:100BD0009821083001F0EFFD9821074801F0EBFD66
:100BE000BDE810400520FFF7FDBA000040090020D5
:100BF000E00600200008AF2F18080020F0B51646C8
:100C00002DED028B85B01F460C4605463C22FE4961
:100C1000A1F10C0001F0A8FDFB4950224C31A1F1DB
:100C2000100001F0A1FDF84996E80D000C3901F122
:100C30003C0C8CE80D005CCC01F1980080E85C0075
:100C40009FEDF28AD1F82401401CC1F82401062846
:100C500002DD0620C1F82401C0F106060C46A035CD
:100C60001AE004EB06116A463846483106F086FC65
:100C700006EB460004EB80016A46284605F07EFE3E
:100C8000F0EEC00AB0EEC81AF4EEC10AF1EE10FAA6
:100C900001D2B0EE408A761C062EE2DB05B0B0EE43
:100CA000480ABDEC028BF0BD70B514462DED048BE7
:100CB0000E46B0EE408A00259FEDD59A416BF0EECE
:100CC000498A002904DBD0F8BC00032800D10125A3
:100CD000CD492422B431081F01F046FDCA480C3822
:100CE000002380ED388A00EB83015B1C91ED2F0A15
:100CF0000A2B70EE288AF6DBB2EE040AC822C8EE90
:100D0000800AC0ED390A9FEDC31A322E1DDB9FED1C
:100D1000C20AC0F81C21B6F57A7FC8EE001A00EEB0
:100D2000104AB8EEC00A61EE801A81EE810A2FDB0C
:100D30009FEDBA0AC8EE001A00EE104AB8EEC00ADB
:100D400061EE801A81EE810A22E041F2883194FB43
:100D5000F1F14942D0F81C3101EB8101C918C0F80A
:100D60001C1102D50021C0F81C119FEDAD0AC8EE80
:100D7000001A00EE104AB8EEC00A61EE801A81EE49
:100D8000810A29B9D0F82811012901D1B0EE490A08
:100D9000D0F8201109B1B0EE480AA2498C4201D125
:100DA000B0EE480AB5EEC00AF1EE10FA01D0C0ED7F
:100DB0003A0A90ED3A1A9C4B71EE600AF0EEE00AA6
:100DC00010EE901A994227DDD0ED2E0AF5EEC00AFA
:100DD000F1EE10FA20D1002D1ED0C0F81C212046C3
:100DE00001F09FFE41EC190B18EE100A01F0EAFE2B
:100DF0009FED8E1B53EC112B01F00EFE53EC192BC3
:100E000001F098FD9FED8B1B53EC112B01F004FEBC
:100E100001F004FF00EE100ABDEC048B70BD2DE95B
:100E2000F04F04462DED048BA9B09FED799A4FF059
:100E3000000A754ECDF810A00C3ECDF814A0CDF8E8
:100E400018A0D6F82011022003297DD000209FEDA4
:100E50007B8A20AD06EB800191ED2A0A05EB80012B
:100E6000401CB8EEC00A042820EE080A81ED000AF2
:100E7000F0DB0FA805F008FF24A805F053FF624B34
:100E800024AA9C330FA920462793FFF7B7FEF0EE64
:100E9000408A04F1180005F0C1FF81096148D6F8C5
:100EA0003021824200DB0246B0EE680A2046FFF79E
:100EB000FBFED6ED3B0AB3460BA820EE200A86EDDA
:100EC0002E0A05F0E1FE13A90BA806F0DDFC4E4842
:100ED0000FAAF0300BA9064606F050FB31460BA8CE
:100EE00006F029FB00210DF13C080DF14C090DF134
:100EF000100E00221346104601EB410C0CEB0007CC
:100F000059F8276008EB8007401C7F680328C6FB60
:100F10000723F3DB900F40EA83004EF82100491CC1
:100F20000329E6DBDBF820015E4600286AD0504644
:100F3000CDF818A0404200EE100AB8EEC00A20EE2C
:100F4000080A03F021FA00E0A2E08DED000A8DED21
:100F5000019A8DED029A0698404200EE100AB8EE12
:100F6000C00A20EE080A03F0C1FA8DED030A9DEDD8
:100F7000060ADFED330AD6F83001B8EEC00A41F2B6
:100F8000883190FBF1F080EE201A00EE100AF8EEA6
:100F9000C01A81EE210AB0EE001AC0EE011ABDEEB1
:100FA000E10A10EE101A490000EE101A0691B8EE90
:100FB000C00A60EE200A00EE100AB8EEC00A20EE69
:100FC000800ABDEEC00A8DED060AB8EEC00A20EE1A
:100FD000080A03F0D9F98DED070A8DED089A8DED19
:100FE000099A9DED060AB8EEC00A20EE080A03F041
:100FF0007DFA8DED0A0A1CAA694620A806F016FBA8
:101000006A461FE04BE000008C0900200024744970
:101010000000000000409C4500004843000048429A
:101020000000C84340420F000E2DB23D00000000FA
:1010300000007940000000000088B34000008030CC
:10104000E102374707A91CA806F0F0FA6F46DFED6A
:10105000958AD4F8BC00002813DD002007EB80013E
:1010600091ED000A05EB800181ED000A20EE280ACF
:1010700006EB8001401C0428BDEEC00A81ED2A0A5F
:10108000ECDBD4F8BC00F6EE009A03280CD108E0A3
:10109000C6F8200129B0BDEC048BBDE8F08F06989E
:1010A00048E701F007FBE0B396ED2A0AB8EEC00A64
:1010B00020EE080A8DED1C0A96ED2B0AB8EEC00A48
:1010C00020EE080A8DED1D0A96ED2C0AB8EEC00A36
:1010D00020EE080A8DED1E0A96ED2D0AB8EEC00A24
:1010E00020EE080A8DED1F0AD6F820010028D1D085
:1010F00096ED2E0A20EE290A03F046F920EE280A82
:10110000BDEEC00A86ED2A0AC6F8ACA0C6F8B0A0AB
:1011100096ED2E0A20EE290A03F0E8F920EE280ABF
:1011200000E004E0BDEEC00A86ED2D0A2BE096ED4E
:101130002E0A20EE290A03F027F98DED070A8DED1E
:10114000089A8DED099A96ED2E0A20EE290A03F0F1
:10115000CDF98DED0A0A6A4607A920A806F066FABD
:10116000684606F00FFB002007EB800191ED000AB6
:1011700006EB8001401C20EE280A0428BDEEC00AC0
:1011800081ED2A0AF0DBD4F8C010279806F01EFD86
:10119000D6F820010028AAD0401E79E770B590F853
:1011A000B810414ACC064FF000034FF0030101D4C0
:1011B000C2E94813B0F82041E40509D4048EE405DF
:1011C00003D5B0F87440E40502D4C2E948131AE02C
:1011D000D2F8341139B1D0E93013C91A4FF47A7307
:1011E000B1FBF3F105E0D0F8B01044F62064A14261
:1011F00002DBC2F830110AE0D2F82C512944C2F8BF
:101200002C11A14201DA002070BDC2E94B31FFF779
:1012100006FEF8E710B54FF49C71234801F0CBFAB5
:10122000214C4FF080400021C4F8FC0044F8A80F86
:101230001D48A83006F0CAFC4FF47A70B7EE000AD9
:10124000606784ED110A10BD174880ED3B0A00204D
:1012500070471549C1F82801002070471249C1F8AC
:1012600034010020704704224FF41671AFF2D3000E
:1012700006F078BBAFF2DB0006F0D2BD10B5FFF789
:10128000C9FF09490020C1F82801C1F83401AFF2B3
:101290002900BDE8104006F0F3BBAFF2350006F0C0
:1012A000EDBD00000000804E800900201FB5014602
:1012B0001022684601F058FAF7489DE80E0080E8D1
:1012C0000E00F6499DF80C0081F8B001002004B032
:1012D00010BD1FB5F0490EC98DE80E00EF49102270
:1012E00091F8B0118DF80C10694601F03DFA00201C
:1012F000EDE72DE9F04F91B000251821684601F087
:101300005AFA0024182106A801F055FAE348A0462D
:10131000C14690F8C01101297ED1D0F8B8B1D0F8FB
:10132000B4A10022C2EBC20000EB4001DB4800EB9D
:10133000810E9EF850000F90002864D000215FE0DD
:10134000DDE900076D1C5EF821300E93181847EB9D
:10135000E376CDE900060EEB8100EDB243690D9313
:10136000DDE9027C4FEAE376DB1946EB0C06CDE9BA
:101370000236836ADDE9047CDE170C93DB1946EB49
:101380000C06CDE90436C06B0E9BDDE9067C83FBC1
:101390000063360C46EA0346F6194CEB2343CDE9CD
:1013A00006630D9BDDE9087C83FB00634FEA16466C
:1013B00046EA0346F6194CEB2343CDE908630C9B40
:1013C000DDE90A7C83FB00634FEA164646EA0346E2
:1013D000F6194CEB2343CDE90A6380FB00634FEA27
:1013E000164646EA034616EB080849EB234904442F
:1013F000584501DA834602E0504500DD8246491C2B
:101400000F9888429CDC521C052A8BDBA348AAEB70
:101410000B01D0F8BC0100E056E0814254DBA5FB93
:101420000823E0170026109006FB083005FB090092
:10143000CDE90C2084FB0420110C41EA004100148A
:10144000CDE90E0106A800EBC601D1E90003A0FB1F
:1014500005B203FB0522002100FB012C684600EBCE
:10146000C601D1E90001A0FB043701FB0471109A09
:1014700000FB0210190C41EA00490CAA4FEA204A6D
:1014800092E889000F9983EA070880EA010252EA8C
:10149000080212D0421A63EB0703BBEB09006CEBA6
:1014A0000A0C4FEA0C4141EA1041000401F00AF92C
:1014B0007A4901EB8601C1F8A401761C032EC1DB39
:1014C0007648012180F8B01111B00020BDE8F08FFE
:1014D000F8B5724D0E460446D5E96D01091A05228C
:1014E00091FBF2F1301A90FBF1F0C0B28DF80000E0
:1014F000042801D92020F8BDC0EBC00000EB40005B
:1015000005EB800191F85000052816D0421C81F8A7
:1015100050209DF80010C1EBC10101EB410105EB2A
:10152000810202EB8001CE63236842F820306068BC
:101530004861A06888620020F8BD01F14003181FCF
:101540001022194601F010F99DF800001022C0EB9E
:10155000C00000EB400005EB8000011D01F004F924
:101560009DF800001022C0EBC00000EB400005EB2E
:10157000800000F11801143001F0F6F89DF8000029
:101580001022C0EBC00000EB400005EB800000F132
:101590002C01283001F0E8F80420BAE730B585B016
:1015A000044603A9684605F0F7FB04A805F0AAFC69
:1015B00002282BD0D4F8E4000399401A374991F857
:1015C000B02112B308B3D1F8A421009C80FB0232F1
:1015D000150445EA134222440092D1F8A821019C47
:1015E00080FB0232150445EA134222440192D1F8ED
:1015F000AC11029A80FB0110030443EA114010442D
:1016000002900321684606F043FB0CE0606B032860
:1016100009D105F0D7FB30B168460399FFF758FFB1
:1016200008B9FFF766FE05B0002030BD10B54FF4D5
:10163000E2711A4801F0BFF818481949C0F8B4110E
:101640004FF4AA01C0F8B8114FF4A021C0F8BC11A2
:10165000012180F8C011002010BD1049C1F8B80167
:10166000002070470D49C1F8B401002070470B49B4
:10167000C1F8BC010020704758B10849D1F8A42135
:101680000260D1F8A8214260D1F8AC11816000203D
:1016900070470520704700005C0C0020B80A00204D
:1016A0000000D8FF2420F5E720B12D4981F8C001C2
:1016B0000020EFE72420EDE7294B93F8B101002843
:1016C000E8D0D3E96D10401A052190FBF1F000201D
:1016D000C0EBC00101EB410103EB810191F8502007
:1016E00022B1002100E0491C8A42FCDC401C052894
:1016F000EEDB0020CEE7082296211A4806F032B928
:10170000184806F08DBB10B5FFF790FF4FF49A73A1
:1017100010221549154806F07DF920B9AFF22900CD
:1017200006F0AEF908B1012010BD0D49012081F885
:10173000B101002010BD10B5094C94F8B10100288A
:1017400008D0084806F06CFBAFF2550006F096FB97
:1017500008B1012010BD002084F8B10110BD0000C7
:10176000B80A00209D150008D3120008AD12000829
:10177000F0B51D462DED028B99B090ED000AD0ED2D
:10178000010A1746B8EEC00AB8EEE01AF8EEE00A11
:101790000E4620EE000A044601EE200AD0ED020AB1
:1017A000B8EEE01AF8EEE00A01EE200A02F066FF59
:1017B000F0EEC00A10EE900AB0F18D4F7EDDD6ED4E
:1017C000000AB8EEE01ADFEDFE0A21EE201A8DEDD8
:1017D000041A96ED011AB8EEC11A21EE201A8DED09
:1017E000051A96ED021AB8EEC11A21EE201A8DEDF7
:1017F000061A96ED031AB8EEC11A61EE200ACDED75
:10180000070A9FEDF08A10AA8DED0C8AD4ED000A2C
:101810000CA904A8F8EEE00A80EE801A8DED0D1AEE
:10182000D4ED010AF8EEE00A80EE801A8DED0E1A72
:10183000D4ED020AF8EEE00A80EE801A8DED0F1A60
:1018400005F0F4FE14A904A805F081FE6A4614A967
:1018500010A805F0EBFE9DED021ADDED010ADA4954
:1018600021EE010A00EEA00A10EE100A884202DA08
:101870009FEDD60A11E010EE100AD549884202DA2F
:101880009FEDD40A09E010EE100AD349884202DA2B
:10189000B5EE000A01E09FEDD10A01EE907AB8EEB4
:1018A000E12ADFEDCF2A8DED088AC2EE221A21EE61
:1018B000800A21EE001A8DED091A00E038E020EED2
:1018C000C00A6A4604A98DED0A0A8DED0B8A08A8A4
:1018D00005F0ACFE6A4604A9104605F00BFE68460A
:1018E00005F00EFFDDED000A9FEDBE0A60EE800AF6
:1018F000FDEEE00AC5ED000ADDED010A60EE800AAA
:10190000FDEEE00AC5ED010ADDED020A60EE800A97
:10191000FDEEE00AC5ED020ADDED030A20EE800AC5
:10192000BDEEC00A85ED030A19B0BDEC028BF0BD17
:1019300096E80F0085E80F00F6E72DE9F0410C4628
:101940002DED068B054690ED000AD0ED010AB8EEAC
:10195000C00AB8EEE01AF8EEE00A20EE000A01EE46
:10196000200AD0ED020AB8EEE01AF8EEE00A01EE25
:10197000200A02F083FE10EE100A4FF07E58002677
:101980004FF0804740453FDDD5ED020AB7EE009AA3
:10199000F8EEE00AC0EE808A39EE680A9FED89AA67
:1019A000B5EEC00AF1EE10FA01DCB0EE4A0AF6EE2E
:1019B000009A20EE290A02F061FEB0EE408A38EE6D
:1019C000890AB5EEC00AF1EE10FA01DCB0EE4A0A5F
:1019D00020EE290A02F052FEF0EE408A95ED000A50
:1019E000B8EEC00A60EE000A95ED010AB8EEC01A22
:1019F000B8EEC00A41EE000AB0EE600A02F03EFE08
:101A000010EE100A404503DCC4E90076A66025E02C
:101A1000DFED740A28EEA01ABDEEC11A84ED001A9B
:101A200095ED011AF8EEC11A81EE801A21EE081A1E
:101A300061EE200AFDEEE00AC4ED010AD5ED000AD0
:101A4000F8EEE00A80EE801A21EE080ADFED660A61
:101A500020EE200ABDEEC00A84ED020AE660BDEC6D
:101A6000068BBDE8F08170B590ED000AD0ED010A5B
:101A70000546B8EEC00AB8EEE01AF8EEE00A0C46E9
:101A800020EE000A01EE200AD0ED020AB8EEE01ABC
:101A9000F8EEE00A01EE200AD0ED030AB8EEE01AF3
:101AA000F8EEE00A01EE200AB5EEC00AF1EE10FAF7
:101AB00007D84FF08040206000206060A060C860C0
:101AC00070BD02F0DBFDB7EE001AC1EE000A9FED1B
:101AD000450A20EE800AD5ED000AF8EEE00A60EE35
:101AE000800AFDEEE00AC4ED000AD5ED010AF8EE29
:101AF000E00A60EE800AFDEEE00AC4ED010AD5EDD1
:101B0000020AF8EEE00A60EE800AFDEEE00AC4ED9B
:101B1000020AD5ED030AF8EEE00A20EE800ABDEED7
:101B2000C00A84ED030A70BD70B5044690F8300019
:101B300088B040067ED5A069002801DB014600E0A0
:101B400041424FF480320026284D91420BDAE16980
:101B5000002900DA4942914205DA216A002900DAB7
:101B60004942914267DB002800DA40424FF4C80145
:101B700088420BDCE069002800DA4042884205DC3C
:101B8000206A002800DA4042884201DD032000E09C
:101B90000220A863696BA06A814242D0686394ED19
:101BA0000A0A9FED131AF8EEC00A80EE810ADFEDF3
:101BB000110A20EE200A10EE100A01F003F81BE0D3
:101BC000000080300000000017B75139A69BC43BCD
:101BD0000AD7233C8FC2753DCDCC4C3ECDCCCC3EFC
:101BE0000014CD470000804E000080CE7C0C002009
:101BF000002474490000004E9FEDFA1B53EC112B9A
:101C000000F098FE9FEDF91B53EC112B00F092FEB3
:101C10009FEDF81B53EC112B00F0FEFE00F0B3FF1C
:101C200028630496296BA06905F04CFC0590296B8C
:101C3000E06901E022E023E005F044FC0690296B16
:101C4000206A05F03FFC07906A4604A9EB4805F0BE
:101C500095FC0098E94A800100900198694680014E
:101C60000190029880010290039880010390104631
:101C700005F02EFCE1490846FFF7F5FE08B070BDFF
:101C8000AE63FBE770B504462DED048B8EB0D0F843
:101C90002001410676D5D94DD4F81011D84B2A68C9
:101CA000891AD4F82C215A438A4201DA032100E030
:101CB0000221A963800504F5887602D5CF49304614
:101CC000B5E0002107A805F067F8CC490C223C31AB
:101CD00007A800F07BFD20B9D4F82801A96D88423F
:101CE0007ED020886B4680B207AA616A04F0A4FE09
:101CF0009DED000ADDED010AB8EEC00AB8EEE01A6B
:101D0000F8EEE00A20EE000A01EE200ADDED020AFC
:101D1000B8EEE01AF8EEE00A01EE200A02F0AEFC9E
:101D2000B0EE408A9FEDB70A68EE000A9FEDB61A42
:101D300080EE810ADFEDB50A20EE200AD4ED4A0AD2
:101D4000F8EEE00A60EE800A1FED571A80EE810A75
:101D5000F6EE000A20EE209AB0EE490A02F014FBDB
:101D6000F0EE408AB0EE490A02F0C0FB18EE100A0D
:101D70004FF08041884206DA0020C5E9121028653C
:101D8000686532E055E05FED690A68EEA00AFDEE95
:101D9000E00AC5ED120A5FED6C0A20EE200ADDEDC7
:101DA000000AF8EEE00A60EE200A80EE881AFDEEE6
:101DB000C10AC5ED130ADDED010AF8EEE00A60EE96
:101DC000200A80EE881AFDEEC10AC5ED140ADDED89
:101DD000020AF8EEE00A20EE200AC0EE080A00E04F
:101DE0000DE0BDEEE00A85ED150A07AB93E80700AC
:101DF00005F13C0383E80700D4F82801A8657F4972
:101E000003AA4831304605F0B9FB7C480AAA5C3089
:101E100003A9044605F0B2FB2146304605F08BFBD2
:101E200003AA0AA9754805F0A9FB744903A8FFF79E
:101E30001AFE0EB0BDEC048B70BD1FB5044669469A
:101E40006E4805F078FB6D4A69462032204605F061
:101E500095FB6A491DCC103181E81D001FBD2DE99D
:101E6000F0470446654E90F8740006F15C0A06F1EE
:101E70002008012500F05001103692B004F5887951
:101E800004F15C07402906D094F8200100F05000CE
:101E900040280DD01DE031463846FFF74EFDB4F81E
:101EA0002001C0050CD55146484605F044FB07E02B
:101EB0005146484605F03FFBB4F87400C00508D50C
:101EC00069464E4805F037FB42466946304605F004
:101ED00055FBB4F82001C005204602D5FFF7D2FE1D
:101EE00001E0FFF721FE32464449404605F046FB3B
:101EF00094F8740040066FD5208EB4F82011084382
:101F0000C0056DD50FAA3946304605F095FCD4E9D9
:101F1000172080FB0001C2FB0201626E374FC2FB3B
:101F200002014FF08042801A71F1020014DB04A814
:101F300004F0A4FFDDE9042080FB0001C2FB0201E4
:101F4000069AC2FB02014FF08042801A71F1020032
:101F500002DB0420B8630BE0B86B042808D041F220
:101F60008832022806D0032804D0012852D009E084
:101F7000002507E0E16E91FBF2F5012D00DA012565
:101F8000032800D0AD002248002445431098079450
:101F90008002294605F096FA08900F98294640429B
:101FA000800205F08FFACDE909040BAA314607A893
:101FB00005F0E4FA32460BA9104605F089FA3146DD
:101FC0000846FFF750FD69460C4805F0B4FA424652
:101FD0006946304605F0D2FA12B00020BDE8F0871D
:101FE00020E00000112D4454FB21094000000000B6
:101FF0000000704000000000008066407C0C002063
:1020000071981C00DB0F494000003443000080370A
:10201000A69BC400E06E90FBF2F0012800DA0120DC
:102020004500AFE7334619463846E26EFFF7A0FB9E
:10203000C9E770B50446008EC105D4F8200107D465
:10204000B4F87410C90503D4C10501D4002070BDD3
:10205000C0F30120032807D02046FFF700FF2348E4
:10206000A16B05F0CBFEF1E704F588711F482EC97E
:1020700080E82E00F3E71E4805F0D2BE1B4810B5DD
:102080006C21103800F097FB18484FF08041103851
:10209000016101600162C163C165002010BD184883
:1020A00010B5082213A1006800F090FB08B132209F
:1020B00010BD1322BDE81040C8210D4805F052BCE8
:1020C00010B5FFF7DBFF002805D1AFF22D00BDE80A
:1020D000104005F0D5BC10BD10B5054805F0A0FEB8
:1020E000AFF24500BDE8104005F0C8BE8C0C0020E2
:1020F00033200008654D504C20352E310000000083
:1021000024000020002803DDFE490122C1E920024D
:102110000020704710B5B821FA4800F04CFB9FED45
:10212000FA0AF84880ED030A9FEDF80A80ED020AEA
:102130009FEDF70A4FF0804180ED000AB3EE0E0AE2
:1021400080ED010A41664FF4FA619FEDF20AC16722
:1021500080ED270A002010BD70B5EA4C002594EDF3
:10216000001AB4EEC01AF1EE10FA17D394ED011A6A
:10217000B4EEC01AF1EE10FA10DC2069012817D174
:1021800094ED030AB4EEE00AF1EE10FA06D394EDF2
:10219000020AB4EEE00AF1EE10FA09DD606F20B930
:1021A000D848A16D183005F011FD0120C4E91D05C6
:1021B000D4E91E01884204DB606F012800D1E56587
:1021C000656770BD10B504462DED028BB0EE408AF8
:1021D00004F068FDCB49002220B918EE100ACE4B5E
:1021E000984202DD0A614A6102E00869002808D1CC
:1021F000486920444861B0F5FA7F02DD0120C1E959
:102200000402BDEC028B10BDF0B58DB00D46144636
:102210000646694605F038FB09AA3146284605F00E
:10222000ADF92946304605F086F90021EC460DF15E
:10223000240E00231A46184601EB41073D180EEB09
:1022400080065CF825507668401CC5FB06320328E2
:10225000F4DB980F40EA820044F82100491C03296E
:10226000E7DB0DB0F0BDA7490020C1F88C00704736
:1022700010B590ED000AD0ED010AB8EEC00AB8EE34
:10228000E01AF8EEE00A20EE000A01EE200AD0ED96
:10229000020AB8EEE01AF8EEE00A01EE200A02F0B7
:1022A000EDF9DFED9E0A20EE200A10BD00229549CF
:1022B000012330B1012810D0C1F8983041F88C2F9B
:1022C00031E081ED280A81ED290A9FED950A81ED23
:1022D0002A0AE1E924328A607047D1ED280A91ED9B
:1022E000271A70EE600AF0EEE00AF4EEC10AF1EE91
:1022F00010FA16D2D1F89400401CC1F89400D1ED28
:10230000290A312830EE800A81ED290AE4DD022015
:10231000DFED840AC1F8900080EE201A81ED2A1AC0
:10232000704741F8902F4A6070472DE9F047984672
:102330002DED088B8AB017468A4604469FED788AB1
:102340000025704E039504950595D6F88800002861
:102350007DD004F045FD10B103A804F00DFDD6F8C2
:1023600080004FF00109002817DDC6F8849004F0C2
:1023700037FD48B103A804F051FD8009B0F5C87FCE
:1023800002D2D6F8800004E0D6F88000001BC6F820
:102390008000002801DCC6F8845004F0D7FF002834
:1023A00055D000209FED5D9A57F8201000EE101ACE
:1023B00058F82010401CB8EEC00A032860EE090A45
:1023C00000EE101AB8EEC00A20EE800A00EE098A6C
:1023D000EADB3846FFF74CFFF0EE408A4FF07E57BD
:1023E00088EE280AF7EE00AA10EE100AB84201DDC6
:1023F000B0EE6A0A10EE100ADFF82C81BFEE00BAC8
:10240000404501D9B0EE4B0A01F00AFED6F88C0027
:10241000B0EE40AA98B196ED000AB4EEE80AF1EEEB
:1024200010FA0CDD96ED010AB4EEE80AF1EE10FAAE
:1024300005D2B0EE4A0AD6F89000FFF737FF68469B
:1024400004F03CFD2F490C22AC31684600E0E2E08C
:1024500000F0BCF918B9D6F8980001286BD12948CA
:102460009DE80E00AC3080E80E00009818B9019885
:1024700008B90298F0B36846FFF7FAFEB0EE408A5A
:10248000B5EEC08AF1EE10FA55D0F2EE049A38EEAD
:10249000690A20EE000A02F0F1F886ED010A38EE32
:1024A000290A20EE000A02F0E9F886ED000A9DED07
:1024B000020AB8EEC00A60EE090AB0EE480A80EEE1
:1024C000808A18EE100AB84201DDB0EE6A8A18EE72
:1024D000100A404501D9B0EE4B8AB0EE480A01F02F
:1024E0009FFDD6ED270A30EE600A86ED020AB0EEB7
:1024F000480A00E024E001F093FDD6ED270A30EE13
:10250000200A14E0E80C00200000B4420000B4C22D
:10251000000070427B142E3E00401C4600008037B5
:102520000000000000004842000080BF03E086ED8C
:10253000030AC6F88C50DFF88481F16D21B32FE0D7
:102540001FED0D0A86ED000AB3EE0E0A86ED010AB4
:10255000D6F89800012808D01FED140A86ED020A6B
:102560001FED170A86ED030AE5E796ED2A0A96EDB8
:10257000271A70EE410A30EE010AC6ED020A86ED16
:10258000030AC6F89850D6E70027C6F85C9006EB19
:1025900007104146183004F0B1FB7F1C042FF6DB16
:1025A000464906AA0C310F465046FFF72DFE394624
:1025B000504604F0C0FF03A804F030FC00EE100AFF
:1025C000DFED3F0A2046B8EE400A20EE200AFFF772
:1025D000F9FDF0EE4A0AB0EE680AFFF7BDFDD6E954
:1025E0001E01884201DA2044B067706F90B9306EE6
:1025F00020443066B0F57A7F0CDD30493022303926
:10260000A1F11000356600F0AFF82C4841461038B3
:1026100004F074FB706F0AB0BDEC088BBDE8F08766
:1026200070B588B0044604A804F07CFBD4E93001FE
:10263000451A684604F028FB064604AB04F1A002E4
:1026400069462846FFF771FE05F0D2FA08B0304619
:1026500070BD04224FF49671AFF23B0005F082B9D1
:10266000AFF2430005F0DCBB10B5FFF753FD0028C7
:102670000DD1124800215838C0F88C100121C0F843
:102680008810AFF23100BDE8104005F0F9B910BD77
:1026900010B5AFF2730005F0C3FBAFF27B00BDE8ED
:1026A000104005F0BDBB054901205839C1F88C0028
:1026B0000020704701485838406F7047400D002097
:1026C0000000803C2DE9F0410024061B254671F1F5
:1026D000000605DA01240027D0EB070067EB0101B3
:1026E000161E73F1000605DA0027D2EB070201255A
:1026F00067EB030300F0C4FA86460E4617469C4675
:10270000AC4204D00025D0EB050E65EB010624B1E8
:102710000020D2EB000760EB030C704631463A46CE
:102720006346BDE8F081202A04DB203A00FA02F17A
:10273000002070479140C2F1200320FA03F31943AF
:1027400090407047202A06DBCB17203A41FA02F06E
:1027500043EAE07306E041FA02F3D040C2F12002FE
:10276000914008431946704710B5431A934209D265
:102770008318881803E010F8011D03F8011D521E8C
:10278000F9D210BD40EA01039B0703D009E008C954
:10279000121F08C0042AFAD203E011F8013B00F826
:1027A000013B521EF9D210BDD2B201E000F8012B5C
:1027B000491EFBD270470022F6E710B513460A46C1
:1027C00004461946FFF7F0FF204610BD30B5044619
:1027D0000020034600E05B1C934203D2E05CCD5C2A
:1027E000401BF8D030BD2DE9FE4F804681EA030042
:1027F000C00F0C46009021F0004123F00045B8EBDB
:102800000200A94105D24046214690461C460B468F
:10281000024623F00040104347D0270DC7F30A00BB
:10282000C3F30A510290401A019040286BDAC3F3B7
:10283000130040F4801B0098924620B10023D2EB95
:10284000030A63EB0B0B01985946C0F14002504656
:10285000FFF769FF06460D4650465946019AFFF7B5
:1028600071FF10EB08006141002487EA115284EAED
:10287000E7731A4340D0009A62B3019A012A4FEAE3
:10288000075215DC001B61EB02014FF0004202EA27
:102890000752CDE90042001C41F5801132462B461B
:1028A00000F075FA03B0BDE8F08F40462146F9E725
:1028B000001B61EB0201001C41F5801300185B4115
:1028C0002018A2F5001747EB030140EAD570B619AE
:1028D0006D4111E06D084FEA360645EAC0754FEAD2
:1028E0000752001B61EB0201001C41F580114908F1
:1028F0004FEA30000019514132462B4603B0BDE883
:10290000F04F00F035BA0098012240000023D0EBD0
:10291000020263EBE073009821464FEAE074B8EBE3
:10292000000061EB0401E9E783F000435BE781F01D
:10293000004158E72DE9FE4F81EA030404F000440A
:1029400021F0004100944FF0000B23F0004350EAC7
:1029500001045ED052EA03045BD0C3F30A54C1F30E
:102960000A552C44A4F2F3340194A0FB0254C1F3A1
:10297000130141F48011C3F3130343F4801301FBEB
:10298000024400FB034E840A970A44EA815447EA52
:102990008357A4FB076802958D0A05FB07854FEA5C
:1029A000932C04FB0C542705029D4FEA065847EA76
:1029B0001637B5EB08056EEB070C870E920E47EA4B
:1029C000811742EA8312A7FB0201B6EB0B0164EB0D
:1029D00000042B0D43EA0C335E1844EB1C50DA461E
:1029E0005146E7FB0201C5F313044FEA0B3343EAF8
:1029F00014534FEA0432019C43EA0603A4F10C0489
:102A00000294009CCDE900B400F0C1F903B0BDE828
:102A1000F08F00200146F9E72DE9F04D81EA03042B
:102A200004F0004B21F0004514464FF0000A23F05B
:102A3000004150EA050220D054EA01021DD0C5F33E
:102A40000A570246C5F31303C1F31300C1F30A5634
:102A500040F4801543F48013A7EB0608101BD646FC
:102A600008F2FD3873EB050002D308F1010801E01C
:102A700092185B41B8F1000F03DA00200146BDE86F
:102A8000F08D00204FF48011064684460EE0171B9F
:102A900073EB050705D3121B63EB050306434CEAF2
:102AA000010C49084FEA300092185B4150EA0107D7
:102AB000EDD152EA030012D082EA040083EA050154
:102AC000084305D0101BAB4106D20122002306E0CB
:102AD00000224FF0004302E06FF0010253101AEBA6
:102AE00006004CEB085110EB0A0041EB0B01BDE86E
:102AF000F04D00F03DB9F0B4CA17CB0F5040514033
:102B0000C61841F100054FEAC372314628004FF064
:102B1000960303D0B623F0BC00F0FCB83046002189
:102B2000F9E70EB5C10F80EAE0700844CA0700213A
:102B300040F233438DE80E000A460B4600F027F9B9
:102B400003B000BD10B500F0004420F00040C20DFD
:102B5000C0F3160040F400007F2A02DA002001468C
:102B600010BD0021962A03DCC2F19602D04002E09B
:102B7000963AFFF7D8FD002CF2D00023D0EB0300EB
:102B800063EB010110BD70B5C1F30A5201F00045BD
:102B90000024C1F3130140F2FF3341F480119A4243
:102BA00001DA002070BD40F233439A42A2F2334270
:102BB00003DC524200F095F800E090402C43F1D045
:102BC000404270BD00F0004230F000400AD0C10D1C
:102BD00001F56071C0F3160042EA0151C2084007D6
:102BE00011437047002001467047000030B5041EB5
:102BF00071F1000404DB4FF00044404264EB01013A
:102C0000141E73F1000405DB1C464FF000435242D2
:102C100063EB0403994208BF904230BD01F00043CA
:102C200030B421F0004150EA010206D00A0DA2F5AD
:102C30006072C1F31301002A02DC30BC002070472F
:102C4000440F44EAC104C100E01830BC00EBC2509C
:102C500000F057B830B50B46014600202022012471
:102C600009E021FA02F59D4205D303FA02F5491B5A
:102C700004FA02F52844151EA2F10102F1DC30BD70
:102C80002DE9F05F0546002092469B4688460646A1
:102C9000814640241BE0284641464746224600F034
:102CA00020F853465A46C01A914110D3114618468F
:102CB0002246FFF738FD2D1A67EB01084F462246E2
:102CC00001200021FFF72FFD17EB00094E41201EC8
:102CD000A4F10104DFDC484631462A464346BDE8FC
:102CE000F09F202A04DB203A21FA02F000217047ED
:102CF00021FA02F3D040C2F1200291400843194664
:102D000070470029A8BF7047401C490008BF20F049
:102D10000100704710B4B0FA80FC00FA0CF050EAE1
:102D2000010404BF10BC704749B1CCF1200421FA62
:102D300004F411FA0CF118BF012121430843A3EB5D
:102D40000C01CB1D4FEA00614FEA102042BF00206A
:102D500010BC704700EBC35010440029A4BF10BC46
:102D60007047401C490008BF20F0010010BC7047AC
:102D700010B5141E73F1000408DA401C41F1000183
:102D800092185B411A4301D120F0010010BD2DE9DA
:102D9000F04D92469B4611B1B1FA81F202E0B0FAD1
:102DA00080F220329046FFF7BEFC04460F4640EA10
:102DB0000A0041EA0B0153465A46084313D0114614
:102DC00053EA010019D0C8F140025046FFF789FFCD
:102DD00005460E46504659464246FFF7A4FC0843B6
:102DE00005D0012004E020463946BDE8F08D0020E2
:102DF000054346EAE0762C4337430A986305E40A24
:102E0000A0EB08000022FD0A44EA47540A3002D52C
:102E100000200146E9E7010510196941DDE908458F
:102E200000196941BDE8F04DA2E7C1F30A52C1F3B0
:102E3000130140F2FF3341F480119A4202DA00207C
:102E40000146704740F233439A42A2F2334202DC19
:102E50005242FFF746BFFFF766BC0000064C074D25
:102E600006E0E06840F0010394E80700984710345A
:102E7000AC42F6D3FDF79EF954A8000874A80008E8
:102E8000FEE7704770B586B00121084600F058FB98
:102E90000121102000F07EFB1E4E07220A21304641
:102EA00000F006F907220921304600F001F900245C
:102EB0008DF8164001208DF8170002258DF814506A
:102EC000410204918DF8155004A9304600F0B2F883
:102ED0008DF814506802049004A9304600F0AAF856
:102EE0004FF4E1300090ADF80440ADF80640ADF885
:102EF0000840ADF80C400C20ADF80A00064C6946BD
:102F0000204600F08FFF0121204600F077FF06B039
:102F100070BD0000000002400010014001B50348F0
:102F20000099416041680029FCD108BD34000020AF
:102F300010B5022000F010F8002806D003F044FA83
:102F4000BDE81040022000F001B810BD0149086042
:102F500070470000143C014001460020024A1268FC
:102F60000A4200D001207047143C014030B51B4A92
:102F700083790168002B2AD013688B431360111DDD
:102F80000B680468A3430B60017911440B68046863
:102F900023430B60114C0834216803689943216076
:102FA000231D19680568A94319604179102905D0C6
:102FB00011440A68006802430A6030BD2168026853
:102FC00011432160196800680143196030BD007920
:102FD000104402688A43026030BD0000003C01409A
:102FE0007FB50121080200F0ABFA0121880300F04F
:102FF000D1FA0225029500248DF80C408DF80F407F
:1030000002A90B4800F016F80121082000F0CCFDC1
:1030100000958DF8044008208DF8050001208DF8FA
:1030200006006846FFF7A2FF00F036FA7FBD0000F9
:10303000002002402DE9F041002201274FF0030C4F
:1030400007FA02F50B682B40AB422CD106685300FF
:103050000CFA03F4A64306600E79D0F800809E4077
:1030600046EA080606600E79012E01D0022E12D122
:103070008668A64386604E79D0F808809E4046EA6E
:10308000080686604668AE43466045688E7996407D
:10309000B6B235434560C568A543C560CC799C4050
:1030A000C3681C43C460521C102AC9D3BDE8F08118
:1030B00010B54B07DB0E9A40C90800EB8100016A8E
:1030C0000F249C40A1430162016A1143016210BDBB
:1030D000418370470148008870470000320000209B
:1030E000FEE7002904D0018841F480610180704727
:1030F000018821F4806101807047C9438182704753
:10310000002904D0018841F0010101807047018845
:1031100021F001010180704710B5154988420AD19C
:1031200001214C05204600F027FA2046BDE810405A
:10313000002100F021BA0F4988420AD101218C05F3
:10314000204600F019FA2046BDE81040002100F0AA
:1031500013BA094988420AD10121CC05204600F062
:103160000BFA2046BDE81040002100F005BA10BD62
:103170000054004000580040005C0040002904D08A
:10318000018841F4807101807047018821F48071C9
:1031900001807047002904D0018841F4007101804A
:1031A0007047018821F40071018070470CB5024618
:1031B000002000920A0F019221F07F41019A002A1B
:1031C00003D0009A1432009203E0090C009A1832DE
:1031D0000092009A12680A4200D001200CBD000043
:1031E0007FB504460D46A08820F03F06684600F0F3
:1031F000DFF902982749B0FBF1F189B20E43A680AE
:10320000228822F001022280234B2A689A4209D8A0
:103210005200B0FBF2F080B2042800D20420491C16
:10322000218423E0EB88A3F53F46FF3E0BD002EB61
:10323000C20303EB0212B0FBF2F080B240F4804014
:10324000020506D007E002EB4202B0FBF2F080B2CA
:10325000F6E740F0010040F400404FF4967251430D
:103260004FF47A72B1FBF2F1491C2184A0832088CB
:1032700040F00100208020884FF6F5310840A988F1
:103280006A89114301432180A88929890843208143
:103290007FBD000040420F00A086010008B50090ED
:1032A0000098084400900098008808BD008AC0B2C9
:1032B0007047002A02D041F0010101E001F0FE0157
:1032C0000182704701827047002904D0018841F4CF
:1032D0000041018070470188C1F30E0101807047F1
:1032E0007FB50546174C01212046FFF753FF01210A
:1032F0002046FFF7E9FF00212046FFF7E5FF2046C3
:10330000FFF70AFF0020ADF804004BF6FF72ADF89E
:103310000620ADF808002015ADF80A000001ADF850
:103320000C000948009001212046FFF7E9FE69469C
:103330002046FFF755FF294604A000F027FE04B001
:10334000012070BD00540040801A06003C3C2D490D
:1033500032432D4552524F522D3E3E20493243209A
:1033600063616C6C6261636B206572726F72206363
:103370006F6465203D2025640A00000030B587B0E9
:103380000121480500F0EAF80121022000F0D8F8F8
:103390004020059002208DF8180003208DF81900B8
:1033A00001208DF81A0000248DF81B40194D0422CD
:1033B00006212846FFF77CFE05A92846FFF73AFEBE
:1033C00080210591042207212846FFF771FE05A9F7
:1033D0002846FFF72FFE104D2846FFF79DFEADF85B
:1033E00008404BF6FF71ADF80A10ADF80C402915F6
:1033F000ADF80E100901ADF8101008490191012136
:103400002846FFF77DFE01A92846FFF7E9FE07B031
:1034100030BD00000004024000540040801A060045
:103420002DE9FC410121882000F08AF84FF48065E5
:10343000009501218DF8041000208DF806008DF80C
:1034400007108DF80500114F69463846FFF7F2FD69
:103450006C00009469463846FFF7ECFD6600009664
:1034600069463846FFF7E6FD0094094F694638463D
:10347000FFF7E0FD054918310D800C800E802146D4
:103480003846FFF725FEBDE8FC810000001C024025
:10349000000C0240FEE7704708B54FF4C06000F032
:1034A00043F807208DF8000001208DF801008DF809
:1034B00002008DF80300684600F002F808BD000025
:1034C00030B50F23C27801250178002A1FD0154A94
:1034D000126802F4E062C2F5E062C2F30722C2F1B0
:1034E0000404D3404278A24084781C401443220153
:1034F00001F1E02181F80024007800F01F018D40E7
:103500004009800000F1E020C0F8005130BD01F01A
:103510001F0085404809800000F1E020C0F880517C
:1035200030BD00000CED00E002490843024908608C
:10353000704700000000FA050CED00E07047000045
:10354000054A002903D011680143116070471168D2
:10355000814311607047000030380240054A00295D
:1035600003D01168014311607047116881431160F5
:103570007047000040380240054A002903D0116816
:10358000014311607047116881431160704700006A
:1035900020380240054A002903D011680143116018
:1035A0007047116881431160704700004438024041
:1035B00070B5244B196801F00C01234C00291ED072
:1035C000224E04291DD008291DD00460196801F07D
:1035D000F00109091E4A545C0168E14041601C6821
:1035E00004F4E054A40A145D21FA04F484601B6816
:1035F00003F460435B0BD25CD140C16070BD0460DA
:10360000E4E70660E2E70F4A121F1168C1F3805534
:10361000116801F03F0135B1B6FBF1F11468C4F354
:103620008814614305E0B4FBF1F11468C4F3881415
:1036300061431268C2F30142521C5200B1FBF2F125
:103640000160C3E7083802400024F40040787D019F
:10365000140000202DE9FF4F83B0044616461D4696
:1036600000200290F54801904FF40039DFF8D0B304
:1036700009E00198411E019105D207B00720BDE87D
:10368000F04FFFF72DBE49465846FFF78FFD002843
:10369000EFD101215846FFF771FD4FF4617ACDF863
:1036A00004A0E84F09E00199481E019005D207B037
:1036B0000820BDE8F04FFFF713BE39465846FFF724
:1036C00075FD0128EFD14FEA440808F0FF01002200
:1036D0005846FFF7EEFDCDF804A0DA4C641C09E073
:1036E0000198411E019105D207B00920BDE8F04FB5
:1036F000FFF7F6BD21465846FFF758FD0128EFD1E8
:1037000014215846FFF7CAFD18215846FFF7C6FD99
:10371000CDF804A009E00198411E019105D207B03F
:103720000A20BDE8F04FFFF7DBBDC649C4487F3132
:10373000FFF73CFD0128EED1C1480499FFF7C2FD17
:10374000CDF804A0DFF8F8B209E00198411E01911C
:1037500005D207B00B20BDE8F04FFFF7C1BDB94956
:1037600058467F31FFF722FD0128EED1012158464E
:10377000FFF704FDCDF804A009E00198411E019176
:1037800005D207B00C20BDE8F04FFFF7A9BD3946C0
:103790005846FFF70BFD0128EFD15F4608F0FF0107
:1037A00001223846FFF785FDCDF804A009E0019815
:1037B000411E019105D207B00D20BDE8F04FFFF783
:1037C0008FBD21463846FFF7F1FC0128EFD1DFF825
:1037D00074B2012E0BF13F0B0FD0022E35D0032E09
:1037E00065D014213846FFF759FD18213846FFF7F8
:1037F00055FD0024A6F10308F9E000213846FFF743
:1038000070FC14213846FFF749FD18213846FFF7B0
:1038100045FD01213846FFF7BDFCCDF804A009E0C5
:103820000199481E019005D207B00E20BDE8F04F67
:10383000FFF756BD59463846FFF7B8FC0128EFD1CF
:103840003846FFF733FD2870D3E000213846FFF7F4
:1038500048FC388840F40060388014213846FFF76F
:103860001DFD18213846FFF719FDCDF804A0754C51
:10387000E41C09E00199481E019005D207B00F2011
:10388000BDE8F04FFFF72CBD21463846FFF78EFC10
:103890000128EFD101213846FFF77CFC3846FFF7BD
:1038A00005FD28703846FFF701FD6870A1E014217E
:1038B0003846FFF7F3FC18213846FFF7EFFCCDF848
:1038C00004A0604CE41C09E00199481E019005D257
:1038D00007B01020BDE8F04FFFF702BD2146384683
:1038E000FFF764FC0128EFD100213846FFF7F9FB10
:1038F0003846FFF7DBFC287001213846FFF74AFC09
:103900003846FFF7D3FC6870CDF804A009E00199B0
:10391000481E019005D207B01120BDE8F04FFFF717
:10392000DFBC59463846FFF741FC0128EFD1384645
:10393000FFF7BCFCA8705CE0444540D1CDF804A082
:10394000404EF61C09E00199481E019005D207B0CF
:103950001020BDE8F04FFFF7C3BC31463846FFF7F3
:1039600025FC0128EFD100213846FFF7BAFB384685
:10397000FFF79CFC01462046641C2954012138466F
:10398000FFF708FC3846FFF791FC661C2855CDF878
:1039900004A009E00199481E019005D207B011204A
:1039A000BDE8F04FFFF79CBC59463846FFF7FEFBD9
:1039B0000128EFD13846FFF779FCA85519E0CDF87A
:1039C00004A009E00198411E019105D207B0122020
:1039D000BDE8F04FFFF784BC59463846FFF7E6FBD9
:1039E0000128EFD13846FFF761FC2855641CB4422A
:1039F000A2D314493846C91CFFF77FFB0F49019138
:103A000009E00198421E019205D207B01320BDE8DB
:103A1000F04FFFF765BC49463846FFF7C7FB002863
:103A2000EFD101213846FFF75CFB398821F40061B2
:103A30003980029807B0BDE8F08F0000B01E040086
:103A400000540040010000102DE9F84F81460C465B
:103A5000174698464FF0000A4F4800904FF4003642
:103A60004E4D08E00098411E009104D2BDE8F84F89
:103A70000120FFF735BC31462846FFF797FB0028A9
:103A8000F0D101212846FFF779FB4FF461760096CB
:103A9000DFF80CB108E00098411E009104D2BDE8A7
:103AA000F84F0220FFF71CBC59462846FFF77EFB63
:103AB0000128F0D14FEA4960010E00222846FFF7A5
:103AC000F8FB0096DFF8D89009F1010908E00098AA
:103AD000411E009104D2BDE8F84F0320FFF700BC5F
:103AE00049462846FFF762FB0128F0D114212846F9
:103AF000FFF7D4FB18212846FFF7D0FB0096DFF82C
:103B0000A09009F17F0908E00098411E009104D2BD
:103B1000BDE8F84F0420FFF7E3BB49462846FFF70E
:103B200045FB0128F0D121462846FFF7CBFB0024B6
:103B300016E0009608E00098411E009104D2BDE80E
:103B4000F84F0520FFF7CCBB49462846FFF72EFB70
:103B50000128F0D118F804102846FFF7B3FB641CC5
:103B6000BC42E6D300960E4CE41C08E00098421ECE
:103B7000009204D2BDE8F84F0620FFF7B1BB214602
:103B80002846FFF713FB0128F0D101212846FFF753
:103B900001FB5046BDE8F88FB01E04000054004001
:103BA000010000107047000010B58A07120F0F23A4
:103BB000934021F003040649214401F608010C68F2
:103BC0009C430C600B68904003430B6010BD0000E9
:103BD000003001402DE9F04706460F4690469946D1
:103BE0000024FFF777FA05464B46424639463046F1
:103BF000FFF730FD00280AD0002D08D02146641CB4
:103C0000E4B2042903D82846FFF788F9ECE7BDE8B9
:103C1000F0872DE9F04706460F4690469946002466
:103C2000FFF758FA05464B46424639463046FFF7FD
:103C30000BFF00280AD0002D08D02146641CE4B2F6
:103C4000042903D82846FFF769F9ECE7BDE8F087B7
:103C50001CB50021019100912E4A106840F480307B
:103C600010604FF4A043106800F4003000900198F9
:103C7000401C0190009810B901989842F3D1106847
:103C8000800302D50120009000E0009100980128F7
:103C90003FD120484030016841F0805101601E4909
:103CA000086840F4404008601A4808300368036020
:103CB000036843F400430360036843F4A0530360C4
:103CC000041F164B2360136843F08073136013685E
:103CD0009B01FCD50A6842F480320A604A68D2032C
:103CE000FCD50A6842F400320A604A689203FCD5A7
:103CF0000B4A40F205711160016821F00301016077
:103D0000016841F0020101600168C1F381010229EB
:103D1000FAD11CBD0038024000700040195A40071B
:103D2000003C024010B500F05BF8BDE8104000F028
:103D30004FB800000D484FF47A710068B0FBF1F005
:103D4000401EB0F1807F01D301200AE04FF0E02156
:103D50004861074AF0201070002088610720086140
:103D60000020002800D0FEE770470000000000207F
:103D700023ED00E010B51248016841F470010160C4
:103D80001048016841F0010101600E4A002108322B
:103D9000116002680C4B1A400260031D0B4A1A6046
:103DA000026822F48022026006480C300160FFF7AE
:103DB0004FFF03494FF000608039086010BD0000DC
:103DC00088ED00E000380240FFFFF6FE10300024CE
:103DD00002480168491C016070470000340000205F
:103DE00003484168002902D04168491E416070477C
:103DF000340000208A05C94301807047002904D09F
:103E0000818941F4005181817047818921F40051F9
:103E1000818170470246002012880A4200D00120AA
:103E2000704700007FB504460D46208A20F44051BB
:103E3000E88808432082A08941F20C618843A98860
:103E40002A8911436A8902431143A181A08A20F47F
:103E50004071A8890843A0826846FFF7A9FB1E4865
:103E6000844202D01D48844201D1039800E00298A8
:103E7000A189090408D500EBC00101EB00102968F5
:103E80004900B0FBF1F007E000EBC00101EB0010CE
:103E900029688900B0FBF1F06422B0FBF2F109015E
:103EA0000B096FF018056B4300EB8300A3891D0419
:103EB0004FF0320307D503EBC000B0FBF2F000F087
:103EC0000700084306E003EB0010B0FBF2F000F03F
:103ED0000F00084320817FBD001001400014014005
:103EE0008088C0F308007047C1F3080181807047E3
:103EF000FEE70FB4F0B5C7B00446092C14D2DFE8D2
:103F000004F0050505050505051305004FAA4692B1
:103F100006A84E9900F05EF80646002E06DC3046F4
:103F200047B0F0BC5DF814FB0020F9E718216846A3
:103F3000FEF741FC24208DF8000001208DF80100DF
:103F40008DF802400D208DF815000A208DF816001E
:103F500000256F4616E0701B122800DB1220C4B249
:103F60001221F81CFEF727FC06A841192246F81C6E
:103F7000FEF7FAFB0024385D01F0C4FF641C172C27
:103F8000F9DB1235B542E6DB0020C9E70FB4054B7B
:103F900010B503A9044A029800F03EFD10BC5DF87C
:103FA00014FB0000E15E00086C0000200FB4084B19
:103FB00010B504A902AA039800F02EFD044602A938
:103FC000002001F0C0F8204610BC5DF814FB000092
:103FD0004751000837B514460846064B6A46214645
:103FE00000F01AFD04466946002001F0ACF82046B6
:103FF0003EBD0000475100084100080218BF0420E0
:104000000A0E18BF40F001004FF07F4232EA010172
:1040100008BF40F00200012808BF052070470000DB
:1040200010B510EE104A4FF01A402DED028B00EB48
:104030004400B0F1C85F4AD84FF0FC40B0EB440FE9
:1040400022D2B0EEC00AF7EE000A30EEC00AF6EE59
:10405000000A20EE208A18EE100A05F013FD00EE8B
:10406000100A14F0004F1DBF9FED281ADFED280A3B
:10407000B1EE400A9FED271A08BFF0EE410AF8EEB4
:10408000001A20EE210A05E020EE008A9FED221A98
:10409000DFED220ADFED221A9FED222A70EEC00A20
:1040A00020EE080A08EE212ADFED1F1A48EE021A58
:1040B0009FED1E2A08EE212ADFED1D1A48EE021A96
:1040C000BDEC028B40EE610A30EE810A10BD4FF06C
:1040D000CC40B0EB440F82BF9FED160ABDEC028BC3
:1040E00010BD4FF07F40B0EB440F05D2BDEC028B0A
:1040F000BDE8104000F0DFBA012000F0C5FBBDECC8
:10410000028BBDE8104000F0DDBA0000000049401D
:1041100022AA7D3A000000000000C93F22AAFD3912
:1041200024FE1C3DC78AD83C1E67383D1B93993D31
:10413000AFAA2A3EDB0FC93F10EE100A10B510EEF1
:10414000901A4FF0684202EB40032DED028BB3F161
:10415000654F3CBF02EB4102B2F1654F7CD200BF1C
:10416000C0F3C753C1F3C7529A1A1B2A09DD10F0D6
:10417000004F14BF9FED6E0A9FED6E0ABDEC028BDF
:1041800010BD12F11A0F1BDA11F0004F09D010F018
:10419000004F0CBF9FED680A9FED680ABDEC028BD3
:1041A00010BD80EE208A18EE100AFFF725FF0428C4
:1041B00008BF00F08FFAB0EE480ABDEC028B10BDCC
:1041C0004200B2EB410F37D910F0004F19BFDFEDBD
:1041D0005C1A9FED5C1ADFED5C1A9FED5C1AB0EE85
:1041E000602A0A46F1EE400A80F00041B0EE420A31
:1041F00010460A1A5200B2F1807F34D2484010F0C3
:10420000004FDFED532A9FED533A1DBFBEEE002A4B
:1042100071EEE21A31EE431AB6EE002A04BF71EED7
:10422000A21A31EE031AF0EE402A42EE602A40EE66
:10423000020A82EEA02A18E011F0004F04BF9FEDA1
:10424000461AF0EE411AD4D010F0004F1CBFDFED3B
:10425000431A9FED431A00E026E004BFDFED411A48
:104260009FED411AC5E780EE202A22EE020ADFED1B
:104270003F0ADFED3F2ABDEC028B40EE202ADFED46
:104280003D0A40EE220ADFED3C2A40EE202ADFED17
:104290003B0A40EE220A22EE000A00EE201A31EE1E
:1042A000020A30EE210A10BD4FF07F42B2EB400F00
:1042B00028BFB2EB410F05D2BDEC028BBDE8104028
:1042C00000F0FCB940EA01035B0008BF41F0FF4188
:1042D0000BD0B2EB400F08BFB2EB410F08D120F07A
:1042E000804000EE100A21F0804100EE901A37E77E
:1042F000B2EB400F12BF5FEA410240F0FF4001F015
:1043000000413FF42DAF4A0092EA40033FF528AF49
:10431000002AACBF9FED1A1A9FED1A1A20EE010A6F
:1043200060EE810A10EE100A10EE901A18E70000F5
:10433000DB0FC9BFDB0FC93FDB0F4940DB0F49C0B3
:104340000000C9BF22AAFDB90000C93F22AAFD3959
:104350000060ED3EC30ACE3700000000000049C0F7
:1043600022AA7DBA0000494022AA7D3A2DAD65BD42
:104370008FB8D53D0FB511BE61C84C3EA8AAAABEE4
:104380000000804F0000802F10EE101A08B5444A3C
:104390006846B2EB410F28D94FF0E640B0EB410F31
:1043A00094BF00204FF0FF3000900098002861DBA0
:1043B00060EE000A10F0010F45D010F0020FDFEDA3
:1043C000391A9FED391A00EEE11ADFED381A40EE86
:1043D000811A21EEA01AF0EE400A40EE010A08BF51
:1043E000F1EE600AB0EE600A08BD314B21F00042E8
:1043F00093423CD911F0004FDFED2E0A20EE201A37
:10440000DFED2D0A19BF31EE601A71EE200A31EE90
:10441000201A71EE600ABDEEE01A11EE100A9FED4F
:10442000271A00F0030000EEC10A9FED251A009044
:1044300000EEC10A9FED231A00EEC10A9FED221A79
:1044400000EEC10AB1E79FED211A9FED210A10F09D
:10445000020F00EE810A9FED1F1A00EE801AB7EEE0
:10446000000A00EE810A18BFB1EE400A08BD00F054
:1044700039F99AE710EE100A4000B0F17F4F3CBFC7
:10448000B7EE000A08BD07D14FF0010000F0FCF9BB
:10449000BDE8084000F016B9BDE8084000F00BB9CF
:1044A000B61F927E336D4C39DA82083CA0AA2ABE30
:1044B000490E494683F9223F0000004B0000C93FE6
:1044C00000A0FD390020A2331A61342CB93AB2BAE7
:1044D000CA9F2A3DDDFFFFBE2DED020B019820F0A3
:1044E000004001909DED000B02B0704700B510EE4A
:1044F000101A2DED028B81B0524A6846B2EB410F83
:104500002ED94FF0E640B0EB410F94BF00204FF0A2
:10451000FF3000900098B0EE408A00286ADB10F06F
:10452000010F4BD068EE080A9FED471A9FED470A2E
:1045300000EE810A9FED461A10F0020F00EE801A7D
:10454000B7EE000A00EE810A02BF01B0BDEC028B9B
:1045500000BD00BF01B0B1EE400ABDEC028B00BD52
:104560003C4B21F00042934241D911F0004FDFED66
:104570003A0A20EE201ADFED390A19BF31EE601A2F
:1045800071EE200A31EE201A71EE600ABDEEE01ADB
:1045900011EE100A9FED321A00F0030000EEC10A7E
:1045A0009FED301A009000EEC10A9FED2F1A00EE29
:1045B000C10A9FED2E1A00EEC10AABE728EE080AE9
:1045C0009FED2B1ADFED2B0A10F0020F40EE410A8F
:1045D0009FED291A00EE201A61EE000AB0EE480A9B
:1045E00008EE200AB6D101B0BDEC028B00BD00F090
:1045F00079F88FE718EE100A4000B0F17F4F0DD226
:1046000018EE100AFFF7F8FC042808BF00F062F863
:10461000B0EE480A01B0BDEC028B00BD09D101200B
:1046200000F032F901B0BDEC028B5DF804EB00F054
:1046300049B801B0B0EE480ABDEC028B5DF804EB5E
:1046400000F039B8B61F927EB93AB2BACA9F2A3D75
:10465000DDFFFFBE490E494683F9223F0000004BB3
:104660000000C93F00A0FD390020A2331A61342C9C
:10467000336D4C39DA82083CA0AA2ABE10B52DED64
:10468000028BB1EEC08A18EE100A20F00040C0F193
:10469000FF40C00F0AD010EE100A20F00040C0F119
:1046A000FF40C00F04BF012000F0EEF8B0EE480A52
:1046B000BDEC028B10BD30EE000A704730EE200AD0
:1046C00070470000DFED020A80EEA00A704700008C
:1046D000000000009FED020A20EE000A7047000073
:1046E000000000102DE9F0014FF07F42B2EB410FC6
:1046F0009FBF4FF0FF310160BDE8F00170474FF000
:10470000004242EA0123C1F3C752783A551112F030
:104710001F0C434CCCF120067C44C1F3C752A2F1DC
:1047200078024FEA621204EB820254F8254008BF77
:10473000D2E9015612D0556804FA0CF425FA06F7AE
:104740003C43976805FA0CF527FA06F8D26807FA91
:104750000CFCF24045EA08054CEA0206A4FB034CB7
:10476000A5FB0352A6FB03631D449D4234BF0126F3
:1047700000261319334416B1934202D903E0934241
:1047800001D2012200E00022624402F1200C9206D4
:10479000DC0C42EA443200EE102A5B03DFED210A12
:1047A000F8EEC01A00EE103A4FEA9C1C11F0004FD0
:1047B000B8EE400AC0F800C020EE201A00EE105AF1
:1047C000DFED190AB8EE400A20EE200A71EE810AE8
:1047D00070EE800A10EE902A02F500626FF30B0271
:1047E00000EE902A70EEE11A31EEC11ADFED101AD8
:1047F00030EE411A9FED0D0A20EE800A01EE210AEB
:104800009FED0C1A00EE810A04BFBDE8F00170476D
:10481000CCF180510160BDE8F001B1EE400A704773
:10482000C8600000000000360000802C22AAFD298C
:10483000DB0FC92F0000C92F0EB5CDE90023029070
:104840000B4603A200210620FFF753FB0EBD00001C
:1048500025737C25737C25642072657475726E697E
:104860006E672025640A000002E008C8121F08C114
:10487000002AFAD170477047002001E001C1121FE1
:10488000002AFBD170470000014908607047000012
:10489000700000202DE9FF5F82B00021DDE90430C7
:1048A000020DDDF840B0034318D044F61050A2F2D8
:1048B000FF3242431514119801281FD0A5EB0B00BD
:1048C000401C5FEA000A4FF000064E4FDFF83891B7
:1048D000B046504615D5CAF1000413E011980124E2
:1048E0004AA3012801D16FEA0B010298119AC0E98D
:1048F0000031C0E9024206B0BDE8F09FCBF10000F4
:10490000DFE704460021404A491842EB0450CDE954
:10491000001012E0E00707D032463B4640464946C9
:10492000FEF708F88046894632463B46104619464F
:10493000FEF700F806460F466410002CEAD1DDE9C8
:104940000401DDE90023BAF1000F06DAFDF7F2FFFA
:1049500042464B46FDF7EEFF05E0FEF75DF84246A6
:104960004B46FEF759F804460E460022284BFEF748
:104970003DF903D84FF0FF30014607E00022254BF8
:1049800020463146FDF72FFFFEF74FFA102409E0CD
:10499000002C0ADB0A220023FEF772F9039B303257
:1049A0001A55641E50EA0102F2D1641C039AC4F144
:1049B00011031444119A012A03D0012208430DD196
:1049C0000AE0084304D000204FF0110B119072E769
:1049D000A3EB0B056D1E0DE05B4504DD4FF00002FF
:1049E00005F1010504E003DA4FF00002A5F101052D
:1049F000002AECD002981199C0E90231C0E90045C3
:104A000079E70000000014400000F03F3000000093
:104A10000000F0430000E03F2DE9FF4F95B09B46BA
:104A20008946064600250FE2252877D1002427462F
:104A3000F84A0121059400E0044316F8013F203BA9
:104A400001FA03F01042F7D130782A2811D06FF024
:104A50002F033078A0F13002092A16D8059A44F0C5
:104A6000020402EB820203EB42021044761C059022
:104A7000EFE759F8042B0592002A03DA504244F478
:104A80000054059044F00204761C30782E2816D18C
:104A900016F8010F44F004042A280DD06FF02F02FD
:104AA0003078A0F13003092B09D807EB870302EB1C
:104AB0004303C718761CF3E759F8047B761C30785B
:104AC0006C280FD006DC4C2817D068280DD06A2837
:104AD00014D104E0742810D07A280FD10DE044F4EA
:104AE00000140AE044F4801401E044F440147278A5
:104AF000824202D104F58014761C761C3078662838
:104B00000BD013DC582877D009DC002875D0452855
:104B1000F6D04628F4D047281AD19DE118E0632842
:104B200035D0642879D0652812D195E1702873D0EA
:104B300008DC6728F1D069286FD06E280DD06F2867
:104B400006D1B5E073282CD0752875D0782874D09C
:104B50005A46179990476D1C75E1C4F3025002281C
:104B600009D003280DD0D9F8001004280DD00D600D
:104B700009F1040967E1D9F80010EA17C1E9005208
:104B8000F6E7D9F800100D80F2E70D70F0E719F89C
:104B9000041B8DF8001000208DF80100EA4601206A
:104BA00003E059F804AB4FF0FF3061074FF000010C
:104BB00002D40DE008F101018846B9420FDA8045C0
:104BC000F8DB1AF808100029F4D108E008F1010117
:104BD00088468142FADB1AF808100029F6D10598B8
:104BE0005B46A0EB080721463846179A00F094FA76
:104BF000284400EB080507E04DE029E10DE01AF834
:104C0000010B5A4617999047B8F10108F7D25B4655
:104C100021463846179A13E142E00A220092C4F373
:104C200002524FF0000A022A08D059F804CB032A96
:104C30004FEAEC710AD00DE029E02AE009F1070102
:104C400021F00702F2E802C1914609E00FFA8CFC5C
:104C50004FEAEC71042A03D14FFA8CFC4FEAEC7155
:104C6000002907DA0A460021DCF1000C61EB0201A1
:104C70002D2202E0220504D52B228DF804200122EA
:104C800003E0E20701D02022F7E7904659E00A212D
:104C900002E010220DE010214FF0000A00910BE01D
:104CA00010224FF0000A44F004040827009203E0A9
:104CB00008224FF0000A0092C4F30252022A05D0E3
:104CC00059F804CB0021032A08D009E009F10701B3
:104CD00021F00702F2E802C1914605E01FFA8CFCC0
:104CE000042A01D10CF0FF0C4FF00008220728D550
:104CF000702806D0009B83F0100353EA0A0305D006
:104D00000EE040228DF80420012208E05CEA010256
:104D100006D030228DF804208DF80500022290463E
:104D2000009B83F0080353EA0A030AD15CEA0102FC
:104D300001D1620705D530228DF804204FF001081B
:104D40007F1E582804D034A003900EA802900DE0D6
:104D500036A0F9E753466046009AFDF791FF844676
:104D60000398825C0298401E029002705CEA010087
:104D7000F0D1029806A9081A00F1200A600702D5AE
:104D800024F4803400E00127574502DDA7EB0A0038
:104D900000E0002000EB0A01009005984144401A11
:104DA0000590E00306D45B462146179A059800F06B
:104DB000B3F90544002706E001A85A46C05D1799DB
:104DC00090476D1C7F1C4745F6DBE0030CD55B4626
:104DD0002146179A059800F09FF9054404E0302019
:104DE0005A46179990476D1C0099481E009000295B
:104DF000F5DC08E0029802995A460078491C0291B5
:104E0000179990476D1CBAF10001AAF1010AF1DC73
:104E100065E100000928010030313233343536377E
:104E200038396162636465660000000030313233F6
:104E30003435363738394142434445460000000096
:104E400000F058F90544761C307800287FF4ECAD6A
:104E500019B02846BDE8F08F620700D4062709F193
:104E6000070222F0070CFCE80223E14603F00048A9
:104E70005FEA080C02D00FF2702C0DE05FEA045CD0
:104E800002D50FF2682C07E05FEAC47C02D00FF273
:104E9000602C01E0AFF2700C4FF0FF3823F00043BC
:104EA000CDF850C065280CD006DC452809D046282E
:104EB0001DD047283DD13DE0662818D067287ED117
:104EC00038E00021112F01DB112000E0781CCDE932
:104ED000000106A90EA8FFF7DDFCDDE90F010E9A1F
:104EE00003910021009207F1010A04914DE04FF077
:104EF00000400097CDE9011006A90EA8FFF7CAFCF3
:104F0000DDE90F0203920E9B11990022DDF80CA03F
:104F10000093049211B9791C00EB010AB7EB0A0067
:104F200004D4C0F1FF3007F1010A0490AAEB070096
:104F3000019044E0012F00DA01270021112F01DD4B
:104F4000112000E03846CDE9000106A90EA8FFF7C0
:104F5000A1FCDDE90F010E9A03910021049100925A
:104F6000BA4621070CD40399514500DA8A46BAF1B2
:104F7000010F05DD009AAAF10101515C302908D02A
:104F8000B84202DA10F1040F06DA0121CDE901106E
:104F900015E0AAF10101E9E7002805DC04990144C4
:104FA0000491AAEB000102E0411C514500DD8A4654
:104FB0000499401A401C01904FF0004002902007D5
:104FC00004D40198504501DBCDF8048000208DF811
:104FD0004F0002980DF14F07B0F1004F25D02B2064
:104FE0000E9002984FF0020800280CDA404202901E
:104FF0002D200E9007E00A210298FDF72BFE30319C
:10500000029007F8011DB8F10001A8F10108F2DCD7
:1050100002980028EFD1791E0E980870307800F0C1
:10502000200040F0450007F8020D12A8C01B00F157
:1050300007081498007800B1012000EB0A010198DC
:1050400001EBE07105984144401A401E0590E003D1
:1050500006D45B462146179A059800F05DF8054492
:105060001498007818B15A46179990476D1CE003C0
:1050700024D55B462146179A059800F04DF8054463
:105080001CE00498002807DBDDE90301884203DD0A
:105090000098405C179901E0179930205A469047D4
:1050A000049805F10105401C04900198401E0190F0
:1050B00004D12E205A46179990476D1CBAF1000171
:1050C000AAF1010ADDDC05E017F8010B5A46179931
:1050D00090476D1CB8F10001A8F10108F4DC5B46B3
:1050E0002146179A0598ABE62D0000002B00000022
:1050F000200000002DE9F041044600251E46174619
:10510000880404D405E039462020B0476D1C641E95
:10511000F9D52846BDE8F0812DE9F0410446002587
:105120001E469046C80301D5302700E0202788049A
:1051300004D505E041463846B0476D1C641EF9D5DC
:105140002846BDE8F0810A68531C0B601070704758
:105150002DE9F04307462DED028B83B088460025EC
:10516000684600F0E1FE00249FED238AE94601260F
:1051700057F8240058F82410401A00D5404200EE99
:10518000100AB8EEC00A20EE080A09EB8400D0ED40
:10519000000AF5EEC00AF1EE10FA1AD080EE201ADD
:1051A000B7EE000A31EE400A10EE100AFDF70AFDD4
:1051B00041EC100BFFF790F99FED101B51EC100B19
:1051C00053EC112BFDF712FD0DD206FA04F0054346
:1051D00009E010EE100A0B4908440B49884202D33B
:1051E00006FA04F00543641C032CC1DB03B0284617
:1051F000BDEC028BBDE8F08300008037000000208A
:1052000085EBC13F666666C19A99D90000280AD02D
:1052100001280DD0022810D0032813D100210AA2A2
:105220000420FEF766BE00210CA20420FEF761BE3A
:10523000002107A20420FEF75CBE00210AA2042080
:10524000FEF757BE704700005265766572736520A1
:105250004C616E6473636170650A0000506F727414
:10526000726169740A000000526576657273652088
:10527000506F7274726169740A00000070B5044660
:10528000E07800F0C00500F03F006178094EC907E2
:1052900007D0C30800F00701491C32680AB118465C
:1052A00090476078000703D5716809B1A80988475D
:1052B000002070BD9800002008B500280CD02020E8
:1052C0008DF8000028208DF8010030208DF80200B4
:1052D00038208DF8030004E0A32204216846FDF77E
:1052E00063FA6A46042140F69E2003F0E3FF03F0D0
:1052F00067FC08BD3EB5044602208DF80000CA20B8
:105300008DF80100E3208DF8020009208DF80300DC
:105310006A460421682003F0CDFFA3208DF8000029
:10532000610609D5C0218DF80110C8218DF8021041
:10533000C2218DF8031005E08DF801008DF8020000
:105340008DF8030014F4C07F09D0C4218DF8041037
:10535000CC218DF80510C6218DF8061005E08DF8DA
:1053600004008DF805008DF806008DF807008DF813
:1053700008008DF809006A460A2140F6A72003F0CC
:1053800099FFA0074FF0D80503D020208DF800002A
:1053900001E08DF800506A46012140F6B62003F086
:1053A00089FFA00603D5012000F09AF802E0002052
:1053B00000F096F814F4C07F20D0E0050CD5B220A0
:1053C0008DF800008B208DF80100B6208DF80200CA
:1053D0009B208DF803000BE0B0208DF800008020AA
:1053E0008DF80100B4208DF8020090208DF80300A4
:1053F0006A46042140F6A22003F05CFFE0074FF468
:105400000B6323D0F8208DF800006A46012118466E
:1054100003F050FFFA21072000F058FB072000F0AE
:1054200028FB012000F041FB642000F01DFC4FF43C
:10543000FA7000F029FCC821274800F0E2FA282081
:1054400000F0F7FA0A2000F004FB06E08DF80050A7
:105450006A460121184603F02DFFA00703D5D92085
:105460008DF8000001E08DF800506A46012140F2FD
:105470003D7003F01FFF600703D5012000F05CF8CA
:1054800002E0002000F058F8E00603D50120FFF705
:1054900013FF02E00020FFF70FFF104D44F008005B
:1054A000688103F08DFB0020A873600601D50620FB
:1054B000A87314F4C07F02D0A87B801DA87314F0D9
:1054C000140F02D0A87B1030A873A00702D0A87BCD
:1054D000001DA87300203EBD09E3CA029800002009
:1054E0000EB54FF4976300280CD00DA0D0E9001240
:1054F0008068CDE9001202906A460921184603F03F
:10550000D9FE0EBD09A0D0E900128068CDE90012D5
:1055100002906A460921184603F0CCFE0EBD000039
:10552000B8AAB38DB4980D355D000000B8AAAAAA38
:10553000B088C3C5C700000008B500280CD0C02043
:105540008DF80000C2208DF80100C4208DF8020003
:10555000C6208DF8030004E08B2204216846FDF785
:1055600023F96A46042140F6982003F0A3FE03F0D5
:1055700027FB08BD0249898901800020704700008F
:105580009800002038B504464FF0FF35002C08D0B5
:105590006A4604214FF4587003F0AEFA18B1284659
:1055A00038BD284638BD9DF803009DF800109DF8D1
:1055B000022040EA01609DF80110090441EA02213D
:1055C00008432060002038BD38B504464FF0FF3551
:1055D000002C08D06A4604214FF4717003F08CFA55
:1055E00018B1284638BD284638BD9DF803009DF8FF
:1055F00000109DF8022040EA01619DF801000004BE
:1056000040EA0220014301EB81008000206000207D
:1056100038BD0000C8234FF48062024940F6F630DE
:1056200003F020B8BC9B00082DE9FF4F8DB0164653
:10563000DDE91A52074688460024A146A5F80090E5
:10564000DFF864B105A99BF80E0003F0FDF94FF0F7
:10565000FF3A18B1504611B0BDE8F08FBBF80A30E0
:1056600013F0140F61D09DF817009DF814109DF8E9
:10567000162040EA01609DF81510090441EA022154
:10568000084330609DF81B109DF818209DF81A40C3
:1056900041EA02619DF81920120442EA04221143F2
:1056A00071609DF81F209DF81C409DF81EC042EAC5
:1056B00004629DF81D40240444EA0C242243B26095
:1056C0009DF823409DF820C09DF822B044EA0C6C60
:1056D0009DF82140240444EA0B244CEA040CC6F84B
:1056E0000CC01024001401900814029010140390B0
:1056F0004FEA2C40049001980299404301FB0101BC
:105700000398049A404302FB02000844A0F1706031
:10571000B0F1007F05D903F053FAA5F80090504688
:1057200099E7288840F480702880590605A818D584
:105730000219065D517841EA0621A8F80010D178D7
:10574000967841EA0621A8F802105179127941EAC7
:105750000221A8F80410A41DE4B2298841F0080130
:10576000298013F4C07F15D00119065D4A7842EAFA
:1057700006223A80CA788E7842EA06227A804A79EE
:10578000097942EA0121B980A41DE4B2298841F0D7
:1057900070012980990702D02044FFF76FFD10980F
:1057A00000F00AFE002056E79800002001494860FA
:1057B00000207047980000200149086000207047D1
:1057C0009800002030B585B0044616A1D1E900024A
:1057D0008968CDE9032102904FF0FF35C82C02D92A
:1057E000284605B030BDC820B0FBF4F1491E080AB8
:1057F0008DF800008DF801106A46022140F2162053
:1058000003F058FD08B12846EBE702AA0C2140F648
:10581000C12003F04FFD08B12846E2E70448848127
:105820000020DEE7FEF2ABC4AAF1DFDFBBAFDFDFB3
:105830009800002000B587B011A1D1E90023896844
:10584000CDE90423069111A1D1E900238968CDE9AE
:105850000123039140F6822301280BD0022803D0B4
:105860004FF0FF3007B000BD04AA0B21184603F02B
:1058700021FDF7E701AA0B21184603F01BFDF1E714
:10588000D8B1B9F38BA391B609B4D900DAB1B9F3A1
:105890008BA391B6DAB4DA0030B587B004463FA0E6
:1058A000006804903EA0006803903EA0006802904B
:1058B0003DA00068019004F0030004AB195C8DF872
:1058C0001810C4F3C102995C8DF81910C4F381114A
:1058D0005B5C8DF81A3003AB185C8DF81400985C93
:1058E0008DF81500585C8DF8160006AA032140F2C9
:1058F000264003F0DFFC4FF0FF3510B1284607B01B
:1059000030BD05AA032140F22A4003F0D3FC08B1C0
:105910002846F4E7029806900198059060070BD599
:105920009DF8180040F001008DF818009DF8140053
:1059300040F001008DF81400A0060BD59DF8190069
:1059400040F001008DF819009DF8150040F00100AD
:105950008DF81500E0050BD59DF81A0040F0010008
:105960008DF81A009DF8160040F001008DF8160021
:1059700006AA03214FF4886003F09CFC08B1284676
:10598000BDE705AA032140F2314003F093FC08B1C2
:105990002846B4E7054804810020B0E74CCD6C00F0
:1059A0000CC92C003656760026466600980000206A
:1059B00008B5010E8DF80010010C8DF80110010AD8
:1059C0008DF802108DF803006A4604214FF45870D8
:1059D00003F070FC08BD08B51421B0FBF1F0010E16
:1059E0008DF80010010C8DF80110010A8DF80210DD
:1059F0008DF803006A4604214FF4717003F05AFCDD
:105A000008BD08B54FF47A7290FBF2F04843010EDE
:105A10008DF80010010C8DF80110010A8DF80210AC
:105A20008DF803006A4604214FF4AE7003F042FC87
:105A300008BD08B50521B0FBF1F0010A8DF8001092
:105A40008DF801006A4602214FF4AD7003F032FC7C
:105A500008BD08B50521B0FBF1F0010A8DF8001072
:105A60008DF801006A4602214FF4AC7003F022FC6D
:105A700008BD08B500210091C10701D03021009177
:105A8000810704D59DF8001041F00C0100914007FA
:105A900004D59DF8000040F0030000906A46012103
:105AA0004FF4A47003F006FC08BD08B500280BD025
:105AB000042800D90420401E00906A46012140F2CB
:105AC0004F1003F0F7FB08BD0120F4E770B5044662
:105AD0002DED028B82B060074FF0FF3602D0B1F59A
